{
  "contractName": "HelloWorld",
  "abi": [
    {
      "inputs": [],
      "name": "hello",
      "outputs": [
        {
          "internalType": "string",
          "name": "",
          "type": "string"
        }
      ],
      "stateMutability": "pure",
      "type": "function",
      "constant": true
    }
  ],
  "bytecode": "0x608060405234801561001057600080fd5b50610173806100206000396000f3fe608060405234801561001057600080fd5b506004361061002b5760003560e01c806319ff1d2114610030575b600080fd5b61003861004e565b604051610045919061011b565b60405180910390f35b60606040518060400160405280600d81526020017f48656c6c6f2c20576f726c642100000000000000000000000000000000000000815250905090565b600081519050919050565b600082825260208201905092915050565b60005b838110156100c55780820151818401526020810190506100aa565b60008484015250505050565b6000601f19601f8301169050919050565b60006100ed8261008b565b6100f78185610096565b93506101078185602086016100a7565b610110816100d1565b840191505092915050565b6000602082019050818103600083015261013581846100e2565b90509291505056fea26469706673582212207037c68b58d7486345209579692344fc8c4eddfc19a619f4f10a614a9ad9df7f64736f6c63430008100033",
  "immutableReferences": {},
  "source": "// SPDX-License-Identifier: MIT\npragma solidity ^0.8.0;\n\ncontract HelloWorld {\n  function hello() public pure returns (string memory) {\n    return \"Hello, World!\";\n  }\n}\n",
  "sourcePath": "/home/silviusblack/my-smart-contract/contracts/HelloWorld.sol",
  "compiler": {
    "name": "solc",
    "version": "0.8.16+commit.07a7930e.Emscripten.clang"
  },
  "schemaVersion": "3.4.9",
  "updatedAt": "2022-09-14T14:26:01.698Z",
  "networkType": "ethereum",
  "devdoc": {
    "kind": "dev",
    "methods": {},
    "version": 1
  },
  "userdoc": {
    "kind": "user",
    "methods": {},
    "version": 1
  }
}