{
  "contractName": "Playground",
  "abi": [
    {
      "inputs": [
        {
          "internalType": "uint256",
          "name": "a",
          "type": "uint256"
        },
        {
          "internalType": "uint256",
          "name": "b",
          "type": "uint256"
        }
      ],
      "name": "sum",
      "outputs": [
        {
          "internalType": "uint256",
          "name": "",
          "type": "uint256"
        }
      ],
      "stateMutability": "pure",
      "type": "function",
      "constant": true
    },
    {
      "inputs": [
        {
          "internalType": "address payable",
          "name": "to",
          "type": "address"
        }
      ],
      "name": "sendMoney",
      "outputs": [],
      "stateMutability": "nonpayable",
      "type": "function"
    },
    {
      "inputs": [],
      "name": "getMoney",
      "outputs": [],
      "stateMutability": "payable",
      "type": "function",
      "payable": true
    }
  ],
  "bytecode": "0x608060405234801561001057600080fd5b50610300806100206000396000f3fe6080604052600436106100345760003560e01c8063338ccd781461003957806398e1b41014610062578063cad0899b1461006c575b600080fd5b34801561004557600080fd5b50610060600480360381019061005b919061019a565b6100a9565b005b61006a61011a565b005b34801561007857600080fd5b50610093600480360381019061008e91906101fd565b61011c565b6040516100a0919061024c565b60405180910390f35b60008173ffffffffffffffffffffffffffffffffffffffff163103610117578073ffffffffffffffffffffffffffffffffffffffff166108fc662386f26fc100009081150290604051600060405180830381858888f19350505050158015610115573d6000803e3d6000fd5b505b50565b565b600080828461012b9190610296565b90508091505092915050565b600080fd5b600073ffffffffffffffffffffffffffffffffffffffff82169050919050565b60006101678261013c565b9050919050565b6101778161015c565b811461018257600080fd5b50565b6000813590506101948161016e565b92915050565b6000602082840312156101b0576101af610137565b5b60006101be84828501610185565b91505092915050565b6000819050919050565b6101da816101c7565b81146101e557600080fd5b50565b6000813590506101f7816101d1565b92915050565b6000806040838503121561021457610213610137565b5b6000610222858286016101e8565b9250506020610233858286016101e8565b9150509250929050565b610246816101c7565b82525050565b6000602082019050610261600083018461023d565b92915050565b7f4e487b7100000000000000000000000000000000000000000000000000000000600052601160045260246000fd5b60006102a1826101c7565b91506102ac836101c7565b92508282019050808211156102c4576102c3610267565b5b9291505056fea264697066735822122036d83094358fce67e3754af97f6338019f2e3f556775c0b95598e41a8776ef9a64736f6c63430008100033",
  "immutableReferences": {},
  "source": "// SPDX-License-Identifier: MIT\npragma solidity ^0.8.0;\n\ncontract Playground {\n  function sum(uint256 a, uint256 b) public pure returns (uint256)  {\n      uint256 c = a + b;\n      return c;\n  }\n\n  function sendMoney(address payable to) public{\n    if (to.balance == 0) {\n      to.transfer(0.01 ether);\n    }\n  }\n\nfunction getMoney() external payable {\n}\n}\n",
  "sourcePath": "/home/silviusblack/my-smart-contract/contracts/Playground.sol",
  "compiler": {
    "name": "solc",
    "version": "0.8.16+commit.07a7930e.Emscripten.clang"
  },
  "schemaVersion": "3.4.9",
  "updatedAt": "2022-09-14T14:26:01.818Z",
  "networkType": "ethereum",
  "devdoc": {
    "kind": "dev",
    "methods": {},
    "version": 1
  },
  "userdoc": {
    "kind": "user",
    "methods": {},
    "version": 1
  }
}